{
  "contractName": "BridgeBsc",
  "abi": [
    {
      "inputs": [
        {
          "internalType": "address",
          "name": "admin",
          "type": "address"
        }
      ],
      "stateMutability": "nonpayable",
      "type": "constructor"
    },
    {
      "anonymous": false,
      "inputs": [
        {
          "indexed": false,
          "internalType": "address",
          "name": "account",
          "type": "address"
        },
        {
          "indexed": false,
          "internalType": "address",
          "name": "token",
          "type": "address"
        },
        {
          "indexed": false,
          "internalType": "uint256",
          "name": "amount",
          "type": "uint256"
        },
        {
          "indexed": false,
          "internalType": "uint256",
          "name": "rate",
          "type": "uint256"
        }
      ],
      "name": "TokensPurchased",
      "type": "event"
    },
    {
      "anonymous": false,
      "inputs": [
        {
          "indexed": false,
          "internalType": "address",
          "name": "account",
          "type": "address"
        },
        {
          "indexed": false,
          "internalType": "address",
          "name": "token",
          "type": "address"
        },
        {
          "indexed": false,
          "internalType": "uint256",
          "name": "amount",
          "type": "uint256"
        },
        {
          "indexed": false,
          "internalType": "uint256",
          "name": "rates",
          "type": "uint256"
        }
      ],
      "name": "TokensSold",
      "type": "event"
    },
    {
      "anonymous": false,
      "inputs": [
        {
          "indexed": false,
          "internalType": "address",
          "name": "from",
          "type": "address"
        },
        {
          "indexed": false,
          "internalType": "address",
          "name": "to",
          "type": "address"
        },
        {
          "indexed": false,
          "internalType": "address",
          "name": "addr",
          "type": "address"
        },
        {
          "indexed": false,
          "internalType": "uint256",
          "name": "amount",
          "type": "uint256"
        },
        {
          "indexed": false,
          "internalType": "uint256",
          "name": "date",
          "type": "uint256"
        },
        {
          "indexed": false,
          "internalType": "uint256",
          "name": "ethp",
          "type": "uint256"
        },
        {
          "indexed": false,
          "internalType": "uint256",
          "name": "bnbp",
          "type": "uint256"
        },
        {
          "indexed": false,
          "internalType": "uint256",
          "name": "lotp",
          "type": "uint256"
        }
      ],
      "name": "Transfer",
      "type": "event"
    },
    {
      "inputs": [],
      "name": "Itoken",
      "outputs": [
        {
          "internalType": "contract TokenBase",
          "name": "",
          "type": "address"
        }
      ],
      "stateMutability": "view",
      "type": "function"
    },
    {
      "inputs": [
        {
          "internalType": "address",
          "name": "reqAddress",
          "type": "address"
        },
        {
          "internalType": "uint256",
          "name": "swapType",
          "type": "uint256"
        },
        {
          "internalType": "uint256",
          "name": "ethp",
          "type": "uint256"
        },
        {
          "internalType": "uint256",
          "name": "bnbp",
          "type": "uint256"
        },
        {
          "internalType": "uint256",
          "name": "lotp",
          "type": "uint256"
        }
      ],
      "name": "buyTokens",
      "outputs": [],
      "stateMutability": "payable",
      "type": "function"
    },
    {
      "inputs": [
        {
          "internalType": "uint256",
          "name": "tkAmount",
          "type": "uint256"
        },
        {
          "internalType": "address",
          "name": "TokenAddress",
          "type": "address"
        }
      ],
      "name": "convertEthToToken",
      "outputs": [
        {
          "internalType": "uint256[]",
          "name": "",
          "type": "uint256[]"
        }
      ],
      "stateMutability": "payable",
      "type": "function"
    },
    {
      "inputs": [
        {
          "internalType": "uint256",
          "name": "tkAmount",
          "type": "uint256"
        },
        {
          "internalType": "address",
          "name": "TokenAddress",
          "type": "address"
        }
      ],
      "name": "getEstimatedETHforToken",
      "outputs": [
        {
          "internalType": "uint256[]",
          "name": "",
          "type": "uint256[]"
        }
      ],
      "stateMutability": "view",
      "type": "function"
    },
    {
      "inputs": [],
      "name": "name",
      "outputs": [
        {
          "internalType": "string",
          "name": "",
          "type": "string"
        }
      ],
      "stateMutability": "view",
      "type": "function"
    },
    {
      "inputs": [],
      "name": "rate",
      "outputs": [
        {
          "internalType": "uint256",
          "name": "",
          "type": "uint256"
        }
      ],
      "stateMutability": "view",
      "type": "function"
    },
    {
      "inputs": [],
      "name": "tokenMain",
      "outputs": [
        {
          "internalType": "contract TokenBase",
          "name": "",
          "type": "address"
        }
      ],
      "stateMutability": "view",
      "type": "function"
    },
    {
      "inputs": [],
      "name": "uniswapRouter",
      "outputs": [
        {
          "internalType": "contract IUniswapV2Router02",
          "name": "",
          "type": "address"
        }
      ],
      "stateMutability": "view",
      "type": "function"
    }
  ],
  "bytecode": "0x60806040526040518060400160405280601081526020017f4c6f74537761702045786368616e676500000000000000000000000000000000815250600090805190602001906200005192919062000128565b50600180553480156200006357600080fd5b50604051620013f0380380620013f08339818101604052810190620000899190620001ef565b8080600260006101000a81548173ffffffffffffffffffffffffffffffffffffffff021916908373ffffffffffffffffffffffffffffffffffffffff160217905550737a250d5630b4cf539739df2c5dacb4c659f2488d600460006101000a81548173ffffffffffffffffffffffffffffffffffffffff021916908373ffffffffffffffffffffffffffffffffffffffff1602179055505050620002ce565b82805462000136906200024f565b90600052602060002090601f0160209004810192826200015a5760008555620001a6565b82601f106200017557805160ff1916838001178555620001a6565b82800160010185558215620001a6579182015b82811115620001a557825182559160200191906001019062000188565b5b509050620001b59190620001b9565b5090565b5b80821115620001d4576000816000905550600101620001ba565b5090565b600081519050620001e981620002b4565b92915050565b6000602082840312156200020257600080fd5b60006200021284828501620001d8565b91505092915050565b600062000228826200022f565b9050919050565b600073ffffffffffffffffffffffffffffffffffffffff82169050919050565b600060028204905060018216806200026857607f821691505b602082108114156200027f576200027e62000285565b5b50919050565b7f4e487b7100000000000000000000000000000000000000000000000000000000600052602260045260246000fd5b620002bf816200021b565b8114620002cb57600080fd5b50565b61111280620002de6000396000f3fe60806040526004361061007b5760003560e01c806340c657c71161004e57806340c657c71461013e5780635d5a7fca1461015a578063735de9f71461018a5780639829021d146101b55761007b565b806306fdde0314610080578063260bfcfa146100ab5780632c4e722e146100d657806339f1242c14610101575b600080fd5b34801561008c57600080fd5b506100956101e0565b6040516100a29190610ce2565b60405180910390f35b3480156100b757600080fd5b506100c061026e565b6040516100cd9190610c7b565b60405180910390f35b3480156100e257600080fd5b506100eb610294565b6040516100f89190610d24565b60405180910390f35b34801561010d57600080fd5b5061012860048036038101906101239190610987565b61029a565b6040516101359190610c3e565b60405180910390f35b610158600480360381019061015391906108cf565b61035e565b005b610174600480360381019061016f9190610987565b610484565b6040516101819190610c3e565b60405180910390f35b34801561019657600080fd5b5061019f610568565b6040516101ac9190610c60565b60405180910390f35b3480156101c157600080fd5b506101ca61058e565b6040516101d79190610c7b565b60405180910390f35b600080546101ed90610fde565b80601f016020809104026020016040519081016040528092919081815260200182805461021990610fde565b80156102665780601f1061023b57610100808354040283529160200191610266565b820191906000526020600020905b81548152906001019060200180831161024957829003601f168201915b505050505081565b600560009054906101000a900473ffffffffffffffffffffffffffffffffffffffff1681565b60015481565b6060600460009054906101000a900473ffffffffffffffffffffffffffffffffffffffff1673ffffffffffffffffffffffffffffffffffffffff16631f00ca74846102e4856105b4565b6040518363ffffffff1660e01b8152600401610301929190610d3f565b60006040518083038186803b15801561031957600080fd5b505afa15801561032d573d6000803e3d6000fd5b505050506040513d6000823e3d601f19601f820116820180604052508101906103569190610946565b905092915050565b60007369445f974258a9f359330e5a36ccfb0adfbd483c90506000600154346103879190610ebb565b905060008273ffffffffffffffffffffffffffffffffffffffff16826040516103af90610bab565b60006040518083038185875af1925050503d80600081146103ec576040519150601f19603f3d011682016040523d82523d6000602084013e6103f1565b606091505b5050905080610435576040517f08c379a000000000000000000000000000000000000000000000000000000000815260040161042c90610d04565b60405180910390fd5b7fb7afe0d49e57ba29123fc336aa09c6ac47695907c7cc86a010d7a7bd3506482433848a34428b8b8b604051610472989796959493929190610bc0565b60405180910390a15050505050505050565b60606000600f426104959190610e65565b90506000600460009054906101000a900473ffffffffffffffffffffffffffffffffffffffff1673ffffffffffffffffffffffffffffffffffffffff16637ff36ab58660006104e3886105b4565b30876040518663ffffffff1660e01b81526004016105049493929190610c96565b6000604051808303818588803b15801561051d57600080fd5b505af1158015610531573d6000803e3d6000fd5b50505050506040513d6000823e3d601f19601f8201168201806040525081019061055b9190610946565b9050809250505092915050565b600460009054906101000a900473ffffffffffffffffffffffffffffffffffffffff1681565b600360009054906101000a900473ffffffffffffffffffffffffffffffffffffffff1681565b60606000600267ffffffffffffffff8111156105f9577f4e487b7100000000000000000000000000000000000000000000000000000000600052604160045260246000fd5b6040519080825280602002602001820160405280156106275781602001602082028036833780820191505090505b509050600460009054906101000a900473ffffffffffffffffffffffffffffffffffffffff1673ffffffffffffffffffffffffffffffffffffffff1663ad5c46486040518163ffffffff1660e01b815260040160206040518083038186803b15801561069257600080fd5b505afa1580156106a6573d6000803e3d6000fd5b505050506040513d601f19601f820116820180604052508101906106ca91906108a6565b81600081518110610704577f4e487b7100000000000000000000000000000000000000000000000000000000600052603260045260246000fd5b602002602001019073ffffffffffffffffffffffffffffffffffffffff16908173ffffffffffffffffffffffffffffffffffffffff16815250508281600181518110610779577f4e487b7100000000000000000000000000000000000000000000000000000000600052603260045260246000fd5b602002602001019073ffffffffffffffffffffffffffffffffffffffff16908173ffffffffffffffffffffffffffffffffffffffff168152505080915050919050565b60006107cf6107ca84610da0565b610d6f565b905080838252602082019050828560208602820111156107ee57600080fd5b60005b8581101561081e57816108048882610891565b8452602084019350602083019250506001810190506107f1565b5050509392505050565b600081359050610837816110ae565b92915050565b60008151905061084c816110ae565b92915050565b600082601f83011261086357600080fd5b81516108738482602086016107bc565b91505092915050565b60008135905061088b816110c5565b92915050565b6000815190506108a0816110c5565b92915050565b6000602082840312156108b857600080fd5b60006108c68482850161083d565b91505092915050565b600080600080600060a086880312156108e757600080fd5b60006108f588828901610828565b95505060206109068882890161087c565b94505060406109178882890161087c565b93505060606109288882890161087c565b92505060806109398882890161087c565b9150509295509295909350565b60006020828403121561095857600080fd5b600082015167ffffffffffffffff81111561097257600080fd5b61097e84828501610852565b91505092915050565b6000806040838503121561099a57600080fd5b60006109a88582860161087c565b92505060206109b985828601610828565b9150509250929050565b60006109cf83836109f3565b60208301905092915050565b60006109e78383610b8d565b60208301905092915050565b6109fc81610f15565b82525050565b610a0b81610f15565b82525050565b6000610a1c82610dec565b610a268185610e27565b9350610a3183610dcc565b8060005b83811015610a62578151610a4988826109c3565b9750610a5483610e0d565b925050600181019050610a35565b5085935050505092915050565b6000610a7a82610df7565b610a848185610e38565b9350610a8f83610ddc565b8060005b83811015610ac0578151610aa788826109db565b9750610ab283610e1a565b925050600181019050610a93565b5085935050505092915050565b610ad681610f51565b82525050565b610ae581610f75565b82525050565b610af481610f99565b82525050565b6000610b0582610e02565b610b0f8185610e54565b9350610b1f818560208601610fab565b610b288161109d565b840191505092915050565b6000610b40601483610e54565b91507f4661696c656420746f2073656e642045746865720000000000000000000000006000830152602082019050919050565b6000610b80600083610e49565b9150600082019050919050565b610b9681610f47565b82525050565b610ba581610f47565b82525050565b6000610bb682610b73565b9150819050919050565b600061010082019050610bd6600083018b610a02565b610be3602083018a610a02565b610bf06040830189610a02565b610bfd6060830188610b9c565b610c0a6080830187610b9c565b610c1760a0830186610b9c565b610c2460c0830185610b9c565b610c3160e0830184610b9c565b9998505050505050505050565b60006020820190508181036000830152610c588184610a6f565b905092915050565b6000602082019050610c756000830184610acd565b92915050565b6000602082019050610c906000830184610adc565b92915050565b6000608082019050610cab6000830187610aeb565b8181036020830152610cbd8186610a11565b9050610ccc6040830185610a02565b610cd96060830184610b9c565b95945050505050565b60006020820190508181036000830152610cfc8184610afa565b905092915050565b60006020820190508181036000830152610d1d81610b33565b9050919050565b6000602082019050610d396000830184610b9c565b92915050565b6000604082019050610d546000830185610b9c565b8181036020830152610d668184610a11565b90509392505050565b6000604051905081810181811067ffffffffffffffff82111715610d9657610d9561106e565b5b8060405250919050565b600067ffffffffffffffff821115610dbb57610dba61106e565b5b602082029050602081019050919050565b6000819050602082019050919050565b6000819050602082019050919050565b600081519050919050565b600081519050919050565b600081519050919050565b6000602082019050919050565b6000602082019050919050565b600082825260208201905092915050565b600082825260208201905092915050565b600081905092915050565b600082825260208201905092915050565b6000610e7082610f47565b9150610e7b83610f47565b9250827fffffffffffffffffffffffffffffffffffffffffffffffffffffffffffffffff03821115610eb057610eaf611010565b5b828201905092915050565b6000610ec682610f47565b9150610ed183610f47565b9250817fffffffffffffffffffffffffffffffffffffffffffffffffffffffffffffffff0483118215151615610f0a57610f09611010565b5b828202905092915050565b6000610f2082610f27565b9050919050565b600073ffffffffffffffffffffffffffffffffffffffff82169050919050565b6000819050919050565b6000610f5c82610f63565b9050919050565b6000610f6e82610f27565b9050919050565b6000610f8082610f87565b9050919050565b6000610f9282610f27565b9050919050565b6000610fa482610f47565b9050919050565b60005b83811015610fc9578082015181840152602081019050610fae565b83811115610fd8576000848401525b50505050565b60006002820490506001821680610ff657607f821691505b6020821081141561100a5761100961103f565b5b50919050565b7f4e487b7100000000000000000000000000000000000000000000000000000000600052601160045260246000fd5b7f4e487b7100000000000000000000000000000000000000000000000000000000600052602260045260246000fd5b7f4e487b7100000000000000000000000000000000000000000000000000000000600052604160045260246000fd5b6000601f19601f8301169050919050565b6110b781610f15565b81146110c257600080fd5b50565b6110ce81610f47565b81146110d957600080fd5b5056fea264697066735822122064f68d147b1ce4e7aef34968fe63595f6155005e6071b34d7c160da9780afa7f64736f6c63430008000033",
  "immutableReferences": {},
  "source": "// SPDX-License-Identifier: MIT\npragma solidity ^0.8.0;\n\nimport './BridgeBase.sol';\n\ncontract BridgeBsc is BridgeBase {\n  constructor(address admin) BridgeBase(admin) {}\n}\n",
  "sourcePath": "C:\\Users\\Z210\\Desktop\\web3\\lsf_Simple\\src\\contracts\\BridgeBsc.sol",
  "compiler": {
    "name": "solc",
    "version": "0.8.0+commit.c7dfd78e.Emscripten.clang"
  },
  "schemaVersion": "3.4.3",
  "updatedAt": "2022-07-17T23:31:59.443Z",
  "networkType": "ethereum",
  "devdoc": {
    "kind": "dev",
    "methods": {},
    "version": 1
  },
  "userdoc": {
    "kind": "user",
    "methods": {},
    "version": 1
  }
}